S011000073696D706C657666642E7372656349
S113000015C037C036C035C034C033C032C031C06B
S113001030C02FC02EC02DC02CC02BC02AC029C078
S113002028C027C026C025C024C05C0011241FBEE0
S1130030CFEDCDBF10E0A0E6B0E0E0EAF5E002C00D
S113004005900D92A836B107D9F720E0A8E6B0E0F4
S113005001C01D92A936B207E1F710E0CCE2D0E06E
S113006003C02297FE0196D2CA32D107D1F702D03B
S113007095C2C6CF8FEF87BB84E381BB88E690E04F
S113008030D061E688E690E01FD061E688E690E033
S11300901BD062E688E690E017D040E650E060E0CE
S11300A088E690E025D066EF88E690E00DD066EF14
S11300B088E690E009D0FFCF88E690E000C08FEF9B
S11300C087BB84E381BB08958399FECF949868BB72
S11300D0949A8CEC91E00197F1F700C00000949899
S11300E0089595988DED90E00197F1F7959A08950C
S11300F02F923F924F925F926F927F928F929F9234
S1130100AF92BF92CF92DF92EF92FF920F931F9321
S1130110CF93DF93CDB7DD27C852CDBFFA014DA1F0
S11301205EA18FA198A58399FECF5EA34DA398A746
S11301308FA3949878E178BB949A8CEC91E0019722
S1130140F1F700C0000094986A3008F41CC260956E
S11301504DA15EA18FA198A58399FECF5EA34DA367
S113016098A78FA3949868BB949A8CEC91E001971C
S1130170F1F700C000009498638163FBAA24A0F8FF
S1130180B12CAA0CBB1CA294B29460EFB622BA2480
S1130190A622BA24608162FBCC24C0F8D12C0024AE
S11301A0D694C7940794D694C7940794DC2CC02C97
S11301B0CA28668161FBEE24E0F8F12CE294F29403
S11301C0A0EFFA22FE24EA22FE24CE284DA15EA14D
S11301D08FA198A58399FECF5EA34DA398A78FA363
S11301E09498C8BA949AACECB1E01197F1F700C0B6
S11301F0000094986281768172FB772770F9F5800C
S11302000F2D017010E002951295107F1027007FCA
S11302101027072B718173FB772770F97DA31EA22A
S11302202DA13EA100243695279507943695279550
S11302300794322F202D022B62FBAA27A0F9B0E0ED
S1130240AA0FBB1FA295B295B07FBA27A07FBA2789
S11302500A2B748172FB772770F979831A8289815A
S11302609A81880F991F880F991F880F991F082B4F
S1130270708171FB222720F930E0220F331F220FF7
S1130280331F022B669561706FA318A6AFA1B8A5A2
S1130290AA0FBB1F0A2B8399FECF949808BB949A8C
S11302A08CEC91E00197F1F700C000009498218153
S11302B0922F858181FB332730F920FB882480F835
S11302C0912C880C991C832A228124FB662460F8D3
S11302D0712C002476946794079476946794079419
S11302E0762C602C862891FB442440F8512C440C35
S11302F0551C4294529440EF5422542444225424D2
S1130300842884FB222420F8312C2294329450EF48
S11303103522322425223224822883FB882780F93F
S11303208B831C82AB81BC81AA0FBB1FAA0FBB1F8E
S1130330AA0FBB1F8A2A92FB992790F99D831E82DC
S11303402D813E81220F331F220F331F822A83996E
S1130350FECF949888BA949A8CEC91E00197F1F7C7
S113036000C00000949882819481A82FA170AF836B
S113037018862F813885002436952795079436955D
S113038027950794322F202D38872F8320812170C1
S113039029871A86A985BA85AA0FBB1FA295B2958B
S11303A0B07FBA27A07FBA272F812A2B392F31702B
S11303B0232B93FB992790F99B871C86AB85BC85DF
S11303C0A295B295B07FBA27A07FBA272A2B96812F
S11303D0929591709D871E86AD85BE85AA0FBB1F21
S11303E0AA0FBB1FAA0FBB1F2A2B83FB882780F9E8
S11303F08F87188A8F859889880F991F880F991F6E
S1130400282B818182958170898B1A8AA989BA895E
S1130410AA0FBB1F2A2B8399FECF949828BB949ACA
S11304208CEC91E00197F1F700C00000949893815F
S11304302081848182958170368131703B8B1C8A46
S1130440AB89BC89AA0FBB1FAA0FBB1FAA0FBB1F76
S11304508A2B91FBBB27B0F9BD8B1E8AAD89BE895F
S11304600024B695A7950794B695A7950794BA2F37
S1130470A02D8A2B24FBBB27B0F9BF8B188EAF8924
S1130480B88DAA0FBB1FA295B295B07FBA27A07FE3
S1130490BA278A2B92FBBB27B0F9B98F1A8EA98D84
S11304A0BA8DA295B295B07FBA27A07FBA278A2BBE
S11304B0929591709B8F1C8EAB8DBC8DAA0FBB1F28
S11304C0AA0FBB1F8A2B23FB222720F92D8F1E8EF8
S11304D02D8D3E8D220F331F822B8399FECF94984E
S11304E088BB949A8CEC91E00197F1F700C000006E
S11304F09498838181708064968193FB992790F905
S11305009F8F18A2AF8DB8A1AA0FBB1FAA0FBB1F44
S1130510AA0FBB1F8A2B958192FB992790F999A367
S11305201AA229A13AA1220F331F220F331F822BB3
S11305309481969591709BA31CA2ABA1BCA1AA0F18
S1130540BB1F8A2B8399FECF949888BB949AECECBA
S1130550F1E03197F1F700C000009498C85DCDBF79
S1130560DF91CF911F910F91FF90EF90DF90CF908B
S1130570BF90AF909F908F907F906F905F904F90BF
S11305803F902F9008954DA15EA18FA198A5E4CD31
S1130590EE0FFF1F0590F491E02D0994F894FFCF1E
S10B05A0040A110A041F1F00E4
S9030000FC
