:1000000015C037C036C035C034C033C032C031C06F
:1000100030C02FC02EC02DC02CC02BC02AC029C07C
:1000200028C027C026C025C024C05C0011241FBEE4
:10003000CFEDCDBF10E0A0E6B0E0E2EBF4E002C00F
:1000400005900D92A836B107D9F720E0A8E6B0E0F8
:1000500001C01D92A936B207E1F710E0CCE2D0E072
:1000600003C02297FE011FD2CA32D107D1F702D0B6
:100070001EC2C6CF8FEF87BB84E381BB88E690E0CA
:1000800030D061E688E690E01FD061E688E690E037
:100090001BD062E688E690E017D040E650E060E0D2
:1000A00088E690E025D066EF88E690E00DD066EF18
:1000B00088E690E009D0FFCF88E690E000C08FEF9F
:1000C00087BB84E381BB08958399FECF949868BB76
:1000D000949A8CEC91E00197F1F700C0000094989D
:1000E000089595988DED90E00197F1F7959A089510
:1000F0002F923F924F925F926F927F928F929F9238
:10010000AF92BF92CF92DF92EF92FF920F931F9325
:10011000CF93DF93CDB7DD27C153CDBF9A838983BA
:10012000262F68E12FA748AB59ABCEDF2FA548A9F2
:1001300059A92A3008F02095622F89819A8148AB0D
:1001400059ABC2DF48A959A9FA01838183FB8824EE
:1001500080F8912C85E0880C991C8A95E1F78081C4
:1001600082FBAA24A0F8B12C96E0AA0CBB1C9A959D
:10017000E1F7682D6A29868181FBCC24C0F8D12C57
:1001800024E0CC0CDD1C2A95E1F76C2989819A8149
:100190009BDF48A959A9FA018281668162FB662723
:1001A00060F9958190FBEE24E0F8F12C34E0EE0C40
:1001B000FF1C3A95E1F76E29918193FB002700F926
:1001C00010E046E0000F111F4A95E1F7602B82FB1B
:1001D000662460F8712C55E0660C771C5A95E1F79F
:1001E0006629948192FB442440F8512C73E0440C1E
:1001F000551C7A95E1F76429908191FB222420F81F
:10020000312C220C331C220C331C62298695817000
:100210008B831C822B813C81220F331F622B8981AF
:100220009A8152DF48A959A9FA012181922F85812B
:1002300081FB662760F921702D831E822D813E810E
:10024000220F331F622B2281229521702F83188663
:100250002F813885B6E0220F331FBA95E1F7622B64
:1002600091FB332730F939871A8629853A8515E0BD
:10027000220F331F1A95E1F7622B84FB332730F9E5
:100280003B871C862B853C8504E0220F331F0A9593
:10029000E1F7622B83FB882780F98D871E862D85E9
:1002A0003E8583E0220F331F8A95E1F7622B92FB94
:1002B000992790F99F87188A2F853889220F331F35
:1002C000220F331F622B89819A81FEDE48A959A92A
:1002D000FA0182819481F82FF170F98B1A8A2989A9
:1002E0003A8966E0220F331F6A95E1F73A8B298B32
:1002F000FA01208121702B8B1C8A2B893C8975E0A7
:10030000220F331F7A95E1F76989622B292F21701B
:10031000622B93FB992790F99D8B1E8A2D893E892C
:10032000A4E0220F331FAA95E1F7622B96819295E4
:1003300091709F8B188E2F89388DB3E0220F331F59
:10034000BA95E1F7622B83FB882780F9898F1A8E93
:10035000298D3A8D220F331F220F331F622B81818B
:10036000829581708B8F1C8E2B8D3C8D220F331FBD
:10037000622B89819A81A8DE48A959A9FA01838153
:100380009081648162956170268121702D8F1E8E0F
:100390002D8D3E8D43E0220F331F4A95E1F7622BEE
:1003A00081FB332730F93F8F18A22F8D38A156E0FB
:1003B000220F331F5A95E1F7622B94FB332730F954
:1003C00039A31AA229A13AA175E0220F331F7A9509
:1003D000E1F7622B82FB332730F93BA31CA22BA150
:1003E0003CA1E4E0220F331FEA95E1F7622B8295EE
:1003F00081708DA31EA22DA13EA1220F331F220FBB
:10040000331F622B93FB992790F99FA318A62FA166
:1004100038A5220F331F622B89819A8155DE48A9A6
:1004200059A9FA01638161706064868183FB882722
:1004300080F989A71AA629A53AA5B3E0220F331F90
:10044000BA95E1F7622B858182FB882780F98BA71B
:100450001CA62BA53CA5220F331F220F331F622B96
:100460008481869581708DA71EA62DA53EA5220F9D
:10047000331F622B89819A81CF5CCDBFDF91CF91F1
:100480001F910F91FF90EF90DF90CF90BF90AF90B2
:100490009F908F907F906F905F904F903F902F90A4
:1004A00013CEEE0FFF1F0590F491E02D0994F89400
:0204B000FFCF7C
:0804B200040A110A041F1F00D7
:00000001FF
