S011000073696D706C657666642E7372656349
S113000015C038C0B9C035C034C033C032C031C0E7
S113001030C02FC02EC02DC02CC02BC02AC029C078
S113002028C027C026C025C024C09A0011241FBEA2
S1130030CFEDCDBF10E0A0E6B0E0EEEDF4E002C0FD
S113004005900D92A038B107D9F720E0A0E8B0E000
S113005001C01D92A338B207E1F710E0CCE2D0E072
S113006003C02297FE0135D2CA32D107D1F729D075
S113007034C2C6CF1F920F920FB60F9211242F9342
S11300803F934F935F936F937F938F939F93AF931C
S1130090BF93EF93FF9367E670E080E890E05CD055
S11300A0FF91EF91BF91AF919F918F917F916F914C
S11300B05F914F913F912F910F900FBE0F901F9022
S11300C0189581E890E0A0D061E681E890E072D0D4
S11300D061E681E890E06ED062E681E890E06AD063
S11300E040E650E060E081E890E095D06FE670E093
S11300F081E890E070D066EF81E890E05BD066EF35
S113010081E890E057D067E770E080E890E024D081
S113011080E890E02DD0C82F682F80E890E018D0B8
S11301206C2F81E890E046D06CE670E080E890E0C7
S113013013D0E9CF81E890E031D080E890E000C0AE
S113014012B88FE289B986E083B988E18AB9089543
S11301505D9BFECF6CB90895FB018081882339F043
S113016031965D9BFECF8CB981918111FACF0895B0
S11301705F9BFECF8CB108951F920F920FB60F9222
S113018011248F9381E38A95F1F700001092820085
S11301908F910F900FBE0F901F9018958FEF87BB14
S11301A084E381BB85B7886085BF8BB780688BBFCC
S11301B078940895809182008111FCCF81E080932E
S11301C0820068BB949A8CEC91E00197F1F700C02F
S11301D0000094980895FB0190819923A1F0319631
S11301E021E0809182008111FCCF2093820098BB92
S11301F0949A8CEC91E00197F1F700C00000949878
S113020091919111EECF089595988DED90E001971D
S1130210F1F7959A0895FA01809182008111FCCF3B
S113022081E08093820088E188BB949A8CEC91E011
S11302300197F1F700C0000094986A3008F06095C7
S1130240809182008111FCCF81E08093820068BBA1
S1130250949A8CEC91E00197F1F700C00000949817
S1130260808182FD31C120E080E2938193FF822F5F
S1130270968191FD27C190E0982B80918200811195
S1130280FCCF81E08093820098BB949A8CEC91E03F
S11302900197F1F700C000009498818183FD10C19B
S11302A060E0828182FD0AC150E0958190FD04C125
S11302B040E0948192FDFEC030E0908191FDF8C051
S11302C020E081FDF3C080E0968192FB992790F9AC
S11302D0962B952B942B932B922B982B8091820009
S11302E08111FCCF81E08093820098BB949A8CECBE
S11302F091E00197F1F700C000009498828184FD99
S1130300D3C090E02181322F21FDCCC060E08581F3
S113031084FDC6C050E083FDC1C040E032FDBCC0D6
S113032030E020FFB7C022E086958170982B962B91
S1130330952B942B932B922B809182008111FCCFCF
S113034081E08093820098BB949A8CEC91E00197B1
S1130350F1F700C0000094988281282F80FF98C094
S113036060E4808180FD92C050E0948193FD8CC054
S113037040E0868184FD86C030E023FD81C020E01A
S1130380818184FD7BC080E09170962B952B942B0A
S1130390932B922B982B809182008111FCCF81E0CA
S11303A08093820098BB949A8CEC91E00197F1F7CA
S11303B000C000009498838181FD5EC070E02081BC
S11303C024FD58C060E082FD53C050E0968190FD4A
S11303D04DC040E084FD48C030E023FD43C080E0D0
S11303E0948192959170972B962B952B942B932B0C
S11303F0982B809182008111FCCF81E08093820050
S113040098BB949A8CEC91E00197F1F700C000003E
S11304109498868183FD24C030E0858182FD1EC0CE
S113042020E0848181FD18C080E093819170906404
S1130430932B922B982B809182008111FCCF81E029
S11304408093820098BB949A8CEC91E00197F1F729
S113045000C000009498089582E0E7CF24E0E1CF43
S113046038E0DBCF82E0BCCF34E0B7CF48E0B2CF96
S113047050E1ACCF60E2A7CF70E4A1CF82E084CF9B
S113048024E07ECF38E079CF40E173CF50E26DCFE6
S113049060E067CF20E048CF34E043CF48E03ECF70
S11304A050E139CF60E233CF90E42CCF82E00CCF1F
S11304B024E007CF38E001CF40E1FBCE50E2F5CE97
S11304C060E4EFCE90E1D8CE20E480E6CECEEE0F0D
S11104D0FF1F0590F491E02D0994F894FFCFDE
S11304DE040A110A041F1F776F6F5F300D0A005450
S11304EE657374696E670053746172743A20000008
S9030000FC
